:100000000C942A000C943C000C943C000C943C0092
:100010000C943C000C943C000C943C000C943C0070
:100020000C943C000C943C000C940B040C943C008D
:100030000C943C000C943C000C943C000C943C0050
:100040000C943C000C943C000C943C000C943C0040
:100050000C943C0011241FBECFE5D8E0DEBFCDBF1D
:1000600010E0A0E6B0E001C01D92A336B107E1F7B1
:100070000E943E040C94A9040C940000DF93CF93DB
:10008000CDB7DEB728970FB6F894DEBF0FBECDBF51
:100090008A836B834C8319828B81883008F0F4C08B
:1000A0008C81882309F077C08A81282F30E0388737
:1000B0002F838F8198858130910559F12F81388563
:1000C000223031052CF48F819885009769F060C04B
:1000D0002F8138852230310589F18F8198858330D1
:1000E000910509F440C054C0AAE3B0E0EAE3F0E0AF
:1000F0008081482F8B81282F30E081E090E0022E14
:1001000002C0880F991F0A94E2F7809584238C938C
:10011000BDC0A7E3B0E0E7E3F0E08081482F8B812A
:10012000282F30E081E090E0022E02C0880F991F56
:100130000A94E2F7809584238C93A8C0A4E3B0E0EE
:10014000E4E3F0E08081482F8B81282F30E081E0CC
:1001500090E0022E02C0880F991F0A94E2F7809562
:1001600084238C9393C0A1E3B0E0E1E3F0E08081CD
:10017000482F8B81282F30E081E090E0022E02C0D2
:10018000880F991F0A94E2F7809584238C937EC090
:1001900081E089837BC08C81813009F072C08A81C3
:1001A000282F30E03E832D838D819E818130910503
:1001B00049F12D813E81223031052CF48D819E81C3
:1001C000009761F05BC02D813E812230310571F1D5
:1001D0008D819E8183309105E9F150C0AAE3B0E0A2
:1001E000EAE3F0E08081482F8B81282F30E081E026
:1001F00090E0022E02C0880F991F0A94E2F7842B28
:100200008C9344C0A7E3B0E0E7E3F0E08081482F9F
:100210008B81282F30E081E090E0022E02C0880F11
:10022000991F0A94E2F7842B8C9330C0A4E3B0E0CA
:10023000E4E3F0E08081482F8B81282F30E081E0DB
:1002400090E0022E02C0880F991F0A94E2F7842BD7
:100250008C931CC0A1E3B0E0E1E3F0E08081482F83
:100260008B81282F30E081E090E0022E02C0880FC1
:10027000991F0A94E2F7842B8C9308C081E089834C
:1002800005C081E0898302C081E089838981289645
:100290000FB6F894DEBF0FBECDBFCF91DF910895AA
:1002A000DF93CF9300D000D00F92CDB7DEB78A8313
:1002B0006B8319828A81282F30E03D832C838C81C7
:1002C0009D8181309105D1F02C813D812230310515
:1002D0002CF48C819D81009761F01FC02C813D81A1
:1002E0002230310581F08C819D818330910581F030
:1002F00014C0EAE3F0E08B81808311C0E7E3F0E013
:100300008B8180830CC0E4E3F0E08B81808307C0A5
:10031000E1E3F0E08B81808302C081E08983898101
:100320000F900F900F900F900F90CF91DF91089545
:10033000DF93CF93CDB7DEB728970FB6F894DEBF23
:100340000FBECDBF8A836B834C8319828B8188302B
:1003500008F0F1C08C81813009F072C08A81282FA9
:1003600030E038872F838F8198858130910549F15E
:100370002F813885223031052CF48F8198850097A4
:1003800061F05BC02F8138852230310571F18F819A
:10039000988583309105E9F150C0ABE3B0E0EBE321
:1003A000F0E08081482F8B81282F30E081E090E0C1
:1003B000022E02C0880F991F0A94E2F7842B8C93B7
:1003C000BCC0A8E3B0E0E8E3F0E08081482F8B8177
:1003D000282F30E081E090E0022E02C0880F991FA4
:1003E0000A94E2F7842B8C93A8C0A5E3B0E0E5E380
:1003F000F0E08081482F8B81282F30E081E090E071
:10040000022E02C0880F991F0A94E2F7842B8C9366
:1004100094C0A2E3B0E0E2E3F0E08081482F8B815A
:10042000282F30E081E090E0022E02C0880F991F53
:100430000A94E2F7842B8C9380C081E089837DC08D
:100440008C81882309F079C08A81282F30E03E838F
:100450002D838D819E818130910559F12D813E81C1
:10046000223031052CF48D819E81009769F060C0A7
:100470002D813E812230310589F18D819E8183302D
:10048000910509F440C054C0ABE3B0E0EBE3F0E009
:100490008081482F8B81282F30E081E090E0022E70
:1004A00002C0880F991F0A94E2F7809584238C93E9
:1004B00044C0A8E3B0E0E8E3F0E08081482F8B81FE
:1004C000282F30E081E090E0022E02C0880F991FB3
:1004D0000A94E2F7809584238C932FC0A5E3B0E0C3
:1004E000E5E3F0E08081482F8B81282F30E081E028
:1004F00090E0022E02C0880F991F0A94E2F78095BF
:1005000084238C931AC0A2E3B0E0E2E3F0E08081A0
:10051000482F8B81282F30E081E090E0022E02C02E
:10052000880F991F0A94E2F7809584238C9305C065
:1005300081E0898302C081E08983898128960FB692
:10054000F894DEBF0FBECDBFCF91DF910895DF934A
:10055000CF9300D000D00F92CDB7DEB78A836B83E4
:1005600019828A81282F30E03D832C838C819D81E4
:1005700081309105D1F02C813D81223031052CF460
:100580008C819D81009761F01FC02C813D812230BC
:10059000310581F08C819D818330910581F014C0FB
:1005A000EBE3F0E08B81808311C0E8E3F0E08B8126
:1005B00080830CC0E5E3F0E08B81808307C0E2E339
:1005C000F0E08B81808302C081E0898389810F9074
:1005D0000F900F900F900F90CF91DF910895DF93C0
:1005E000CF93CDB7DEB727970FB6F894DEBF0FBE17
:1005F000CDBF8A836B835D834C8319828C819D81FF
:10060000009709F478C08B81883008F074C08A8123
:10061000282F30E03F832E834E815F81413051058A
:1006200059F18E819F818230910534F42E813F8172
:100630002115310569F05CC04E815F814230510562
:1006400079F18E819F818330910509F43DC050C0BE
:10065000E9E3F0E08081282F30E08B81882F90E063
:10066000A90102C0559547958A95E2F7CA018170A4
:10067000EC81FD81808341C0E6E3F0E08081282F9A
:1006800030E08B81882F90E0A90102C055954795F5
:100690008A95E2F7CA018170EC81FD8180832DC0CB
:1006A000E3E3F0E08081282F30E08B81882F90E019
:1006B000A90102C0559547958A95E2F7CA01817054
:1006C000EC81FD81808319C0E0E3F0E08081282F78
:1006D00030E08B81882F90E0A90102C055954795A5
:1006E0008A95E2F7CA018170EC81FD81808305C0A3
:1006F00081E0898302C081E08983898127960FB6D2
:10070000F894DEBF0FBECDBFCF91DF910895DF9388
:10071000CF9300D00F92CDB7DEB789838981282F80
:1007200030E03B832A838A819B81009769F02A818C
:100730003B812130310579F4AFE5B0E0EFE5F0E041
:10074000808180688C9307C0AFE5B0E0EFE5F0E012
:1007500080818F778C930F900F900F90CF91DF91C6
:100760000895DF93CF93CDB7DEB7A3E5B0E0E3E51F
:10077000F0E080818F7B8C93A3E5B0E0E3E5F0E0CF
:10078000808188608C93A9E5B0E0E9E5F0E08081A4
:1007900082608C93ECE5F0E08DE78083A3E5B0E028
:1007A000E3E5F0E080818F7E8C93A3E5B0E0E3E5A4
:1007B000F0E080818F7D8C93A3E5B0E0E3E5F0E08D
:1007C0008081887F8C93A3E5B0E0E3E5F0E0808151
:1007D00083608C93CF91DF910895DF93CF9300D006
:1007E0000F92CDB7DEB79B838A8381E089838A81AC
:1007F0009B81009739F08A819B819093610080935F
:10080000600002C082E0898389810F900F900F9071
:10081000CF91DF9108951F920F920FB60F9211247E
:100820002F933F934F935F936F937F938F939F93F8
:10083000AF93BF93EF93FF93DF93CF93CDB7DEB723
:100840008091600090916100009729F0E091600034
:10085000F09161000995CF91DF91FF91EF91BF91E8
:10086000AF919F918F917F916F915F914F913F9148
:100870002F910F900FBE0F901F901895DF93CF937D
:10088000CDB7DEB780E060E041E00E943E0080E04E
:1008900061E041E00E943E0080E062E041E00E94B1
:1008A0003E0080E060E041E00E94980180E061E06D
:1008B00041E00E94980180E062E041E00E949801DE
:1008C0000E94B1038AE694E00E94ED0381E00E9459
:1008D0008703FFCFDF93CF93CDB7DEB78091620060
:1008E0008F5F8093620080916200853031F480E0F8
:1008F00060E040E00E94980129C0809162008A3047
:1009000031F480E061E040E00E9498011FC08091D6
:1009100062008F3031F480E062E040E00E94980194
:1009200015C080916200843189F480E060E041E08C
:100930000E94980180E061E041E00E94980180E01F
:1009400062E041E00E94980110926200CF91DF9135
:060950000895F894FFCFAA
:00000001FF
