:100000000C942A000C94B4040C9405050C94560529
:100010000C943C000C943C000C943C000C943C0070
:100020000C943C000C943C000C943C000C943C0060
:100030000C943C000C943C000C943C000C943C0050
:100040000C943C000C943C000C943C000C943C0040
:100050000C943C0011241FBECFE5D8E0DEBFCDBF1D
:1000600010E0A0E6B0E001C01D92A636B107E1F7AE
:100070000E94B3050C94DD050C940000DF93CF9330
:10008000CDB7DEB728970FB6F894DEBF0FBECDBF51
:100090008A836B834C8319828B81883008F0F4C08B
:1000A0008C81882309F077C08A81282F30E0388737
:1000B0002F838F8198858130910559F12F81388563
:1000C000223031052CF48F819885009769F060C04B
:1000D0002F8138852230310589F18F8198858330D1
:1000E000910509F440C054C0AAE3B0E0EAE3F0E0AF
:1000F0008081482F8B81282F30E081E090E0022E14
:1001000002C0880F991F0A94E2F7809584238C938C
:10011000BDC0A7E3B0E0E7E3F0E08081482F8B812A
:10012000282F30E081E090E0022E02C0880F991F56
:100130000A94E2F7809584238C93A8C0A4E3B0E0EE
:10014000E4E3F0E08081482F8B81282F30E081E0CC
:1001500090E0022E02C0880F991F0A94E2F7809562
:1001600084238C9393C0A1E3B0E0E1E3F0E08081CD
:10017000482F8B81282F30E081E090E0022E02C0D2
:10018000880F991F0A94E2F7809584238C937EC090
:1001900081E089837BC08C81813009F072C08A81C3
:1001A000282F30E03E832D838D819E818130910503
:1001B00049F12D813E81223031052CF48D819E81C3
:1001C000009761F05BC02D813E812230310571F1D5
:1001D0008D819E8183309105E9F150C0AAE3B0E0A2
:1001E000EAE3F0E08081482F8B81282F30E081E026
:1001F00090E0022E02C0880F991F0A94E2F7842B28
:100200008C9344C0A7E3B0E0E7E3F0E08081482F9F
:100210008B81282F30E081E090E0022E02C0880F11
:10022000991F0A94E2F7842B8C9330C0A4E3B0E0CA
:10023000E4E3F0E08081482F8B81282F30E081E0DB
:1002400090E0022E02C0880F991F0A94E2F7842BD7
:100250008C931CC0A1E3B0E0E1E3F0E08081482F83
:100260008B81282F30E081E090E0022E02C0880FC1
:10027000991F0A94E2F7842B8C9308C081E089834C
:1002800005C081E0898302C081E089838981289645
:100290000FB6F894DEBF0FBECDBFCF91DF910895AA
:1002A000DF93CF9300D000D00F92CDB7DEB78A8313
:1002B0006B8319828A81282F30E03D832C838C81C7
:1002C0009D8181309105D1F02C813D812230310515
:1002D0002CF48C819D81009761F01FC02C813D81A1
:1002E0002230310581F08C819D818330910581F030
:1002F00014C0EAE3F0E08B81808311C0E7E3F0E013
:100300008B8180830CC0E4E3F0E08B81808307C0A5
:10031000E1E3F0E08B81808302C081E08983898101
:100320000F900F900F900F900F90CF91DF91089545
:10033000DF93CF93CDB7DEB728970FB6F894DEBF23
:100340000FBECDBF8A836B834C8319828B8188302B
:1003500008F0F1C08C81813009F072C08A81282FA9
:1003600030E038872F838F8198858130910549F15E
:100370002F813885223031052CF48F8198850097A4
:1003800061F05BC02F8138852230310571F18F819A
:10039000988583309105E9F150C0ABE3B0E0EBE321
:1003A000F0E08081482F8B81282F30E081E090E0C1
:1003B000022E02C0880F991F0A94E2F7842B8C93B7
:1003C000BCC0A8E3B0E0E8E3F0E08081482F8B8177
:1003D000282F30E081E090E0022E02C0880F991FA4
:1003E0000A94E2F7842B8C93A8C0A5E3B0E0E5E380
:1003F000F0E08081482F8B81282F30E081E090E071
:10040000022E02C0880F991F0A94E2F7842B8C9366
:1004100094C0A2E3B0E0E2E3F0E08081482F8B815A
:10042000282F30E081E090E0022E02C0880F991F53
:100430000A94E2F7842B8C9380C081E089837DC08D
:100440008C81882309F079C08A81282F30E03E838F
:100450002D838D819E818130910559F12D813E81C1
:10046000223031052CF48D819E81009769F060C0A7
:100470002D813E812230310589F18D819E8183302D
:10048000910509F440C054C0ABE3B0E0EBE3F0E009
:100490008081482F8B81282F30E081E090E0022E70
:1004A00002C0880F991F0A94E2F7809584238C93E9
:1004B00044C0A8E3B0E0E8E3F0E08081482F8B81FE
:1004C000282F30E081E090E0022E02C0880F991FB3
:1004D0000A94E2F7809584238C932FC0A5E3B0E0C3
:1004E000E5E3F0E08081482F8B81282F30E081E028
:1004F00090E0022E02C0880F991F0A94E2F78095BF
:1005000084238C931AC0A2E3B0E0E2E3F0E08081A0
:10051000482F8B81282F30E081E090E0022E02C02E
:10052000880F991F0A94E2F7809584238C9305C065
:1005300081E0898302C081E08983898128960FB692
:10054000F894DEBF0FBECDBFCF91DF910895DF934A
:10055000CF9300D000D00F92CDB7DEB78A836B83E4
:1005600019828A81282F30E03D832C838C819D81E4
:1005700081309105D1F02C813D81223031052CF460
:100580008C819D81009761F01FC02C813D812230BC
:10059000310581F08C819D818330910581F014C0FB
:1005A000EBE3F0E08B81808311C0E8E3F0E08B8126
:1005B00080830CC0E5E3F0E08B81808307C0E2E339
:1005C000F0E08B81808302C081E0898389810F9074
:1005D0000F900F900F900F90CF91DF910895DF93C0
:1005E000CF93CDB7DEB727970FB6F894DEBF0FBE17
:1005F000CDBF8A836B835D834C8319828C819D81FF
:10060000009709F478C08B81883008F074C08A8123
:10061000282F30E03F832E834E815F81413051058A
:1006200059F18E819F818230910534F42E813F8172
:100630002115310569F05CC04E815F814230510562
:1006400079F18E819F818330910509F43DC050C0BE
:10065000E9E3F0E08081282F30E08B81882F90E063
:10066000A90102C0559547958A95E2F7CA018170A4
:10067000EC81FD81808341C0E6E3F0E08081282F9A
:1006800030E08B81882F90E0A90102C055954795F5
:100690008A95E2F7CA018170EC81FD8180832DC0CB
:1006A000E3E3F0E08081282F30E08B81882F90E019
:1006B000A90102C0559547958A95E2F7CA01817054
:1006C000EC81FD81808319C0E0E3F0E08081282F78
:1006D00030E08B81882F90E0A90102C055954795A5
:1006E0008A95E2F7CA018170EC81FD81808305C0A3
:1006F00081E0898302C081E08983898127960FB6D2
:10070000F894DEBF0FBECDBFCF91DF910895DF9388
:10071000CF9300D00F92CDB7DEB789838981282F80
:1007200030E03B832A838A819B818130910521F1CE
:100730002A813B81223031052CF48A819B810097EC
:1007400061F046C02A813B812230310521F18A8146
:100750009B818330910571F13BC0A5E5B0E0E5E5F3
:10076000F0E080818D7F8C93A5E5B0E0E5E5F0E0D9
:1007700080818E7F8C932CC0A5E5B0E0E5E5F0E0AC
:1007800080818D7F8C93A5E5B0E0E5E5F0E0808188
:1007900081608C931DC0A5E5B0E0E5E5F0E08081C7
:1007A00082608C93A5E5B0E0E5E5F0E080818E7F86
:1007B0008C930EC0A5E5B0E0E5E5F0E080818260B5
:1007C0008C93A5E5B0E0E5E5F0E0808181608C9355
:1007D000ABE5B0E0EBE5F0E0808180648C930F90B6
:1007E0000F900F90CF91DF910895DF93CF9300D0BA
:1007F0000F92CDB7DEB789838981282F30E03B8304
:100800002A838A819B818130910521F12A813B8154
:10081000223031052CF48A819B81009761F046C01B
:100820002A813B812230310521F18A819B818330ED
:10083000910571F13BC0A5E5B0E0E5E5F0E0808110
:10084000877F8C93A5E5B0E0E5E5F0E080818B7FC4
:100850008C932CC0A5E5B0E0E5E5F0E08081877FD2
:100860008C93A5E5B0E0E5E5F0E0808184608C93B1
:100870001DC0A5E5B0E0E5E5F0E0808188608C93DF
:10088000A5E5B0E0E5E5F0E080818B7F8C930EC0BC
:10089000A5E5B0E0E5E5F0E0808188608C93A5E512
:1008A000B0E0E5E5F0E0808184608C93ABE5B0E0FA
:1008B000EBE5F0E0808180688C930F900F900F90B3
:1008C000CF91DF910895DF93CF9300D00F92CDB7F2
:1008D000DEB789838981282F30E03B832A838A8190
:1008E0009B818230910531F02A813B812330310593
:1008F00049F00FC0A4E5B0E0E4E5F0E080818F7B33
:100900008C9307C0A4E5B0E0E4E5F0E0808180646A
:100910008C93ABE5B0E0EBE5F0E0808180628C93F6
:100920000F900F900F90CF91DF910895DF93CF93A9
:1009300000D00F92CDB7DEB79B838A8381E0898395
:100940008A819B81009739F08A819B819093610015
:100950008093600002C082E0898389810F900F90AC
:100960000F90CF91DF9108951F920F920FB60F92C3
:1009700011242F933F934F935F936F937F938F93A4
:100980009F93AF93BF93EF93FF93DF93CF93CDB735
:10099000DEB78091600090916100009729F0E091AE
:1009A0006000F09161000995CF91DF91FF91EF9187
:1009B000BF91AF919F918F917F916F915F914F9177
:1009C0003F912F910F900FBE0F901F901895DF93BE
:1009D000CF9300D00F92CDB7DEB79B838A8381E09F
:1009E00089838A819B81009739F08A819B819093CA
:1009F00063008093620002C082E0898389810F9046
:100A00000F900F90CF91DF9108951F920F920FB624
:100A10000F9211242F933F934F935F936F937F9384
:100A20008F939F93AF93BF93EF93FF93DF93CF93F6
:100A3000CDB7DEB78091620090916300009729F0F6
:100A4000E0916200F09163000995CF91DF91FF91F1
:100A5000EF91BF91AF919F918F917F916F915F9136
:100A60004F913F912F910F900FBE0F901F901895AF
:100A7000DF93CF9300D00F92CDB7DEB79B838A83ED
:100A800081E089838A819B81009739F08A819B81EB
:100A9000909365008093640002C082E0898389811D
:100AA0000F900F900F90CF91DF9108951F920F92AA
:100AB0000FB60F9211242F933F934F935F936F9331
:100AC0007F938F939F93AF93BF93EF93FF93DF93A6
:100AD000CF93CDB7DEB78091640090916500009709
:100AE00029F0E0916400F09165000995CF91DF91C4
:100AF000FF91EF91BF91AF919F918F917F916F91F6
:100B00005F914F913F912F910F900FBE0F901F90CB
:100B10001895DF93CF9300D00F92CDB7DEB78983BE
:100B20008981282F30E03B832A838A819B8100972B
:100B300069F02A813B812130310579F4AFE5B0E0DD
:100B4000EFE5F0E0808180688C9307C0AFE5B0E00E
:100B5000EFE5F0E080818F778C930F900F900F90EE
:100B6000CF91DF910895DF93CF93CDB7DEB781E0CA
:100B700062E040E00E943E0081E062E041E00E94CD
:100B8000980180E060E041E00E943E0082E00E9427
:100B9000630481ED95E00E94380581E00E9489059B
:100BA000FFCFDF93CF93CDB7DEB780E060E041E0C9
:0E0BB0000E949801CF91DF910895F894FFCF35
:00000001FF
